:020000040800F2
:10000000580D0020D5020008595B0008095500086A
:1000100069580008651C0008556A000800000000C7
:10002000000000000000000000000000C15E0008A9
:10003000391D000800000000E15B00083164000881
:10004000EF020008EF020008EF020008EF020008CC
:10005000EF020008EF020008EF020008EF020008BC
:10006000EF020008EF020008EF020008EF020008AC
:10007000EF020008EF020008EF020008EF0200089C
:10008000EF020008EF020008EF020008EF0200088C
:10009000691C0008751C0008EF020008EF02000848
:1000A000EF020008EF020008EF020008EF0200086C
:1000B000F9660008EF02000805670008EF02000873
:1000C000EF0200080D550008EF020008015D00086E
:1000D000EF020008EF0200083D6A0008496A0008C4
:1000E000EF020008EF020008EF020008EF0200082C
:1000F000EF020008EF020008EF020008EF0200081C
:10010000EF020008EF020008EF020008EF0200080B
:10011000EF020008EF020008EF020008EF020008FB
:10012000EF020008EF020008EF020008EF020008EB
:10013000EF020008EF020008EF020008EF020008DB
:10014000811C00088D1C0008EF020008EF02000867
:10015000EF020008EF020008EF020008EF020008BB
:10016000EF020008EF020008EF020008EF020008AB
:10017000EF020008EF020008EF0200080000000094
:10018000EF020008EF02000800F002F800F092F819
:100190000AA090E8000C82448344AAF10107DA45E2
:1001A00001D100F087F8AFF2090EBAE80F0013F0A2
:1001B000010F18BFFB1A43F001031847BC99000058
:1001C000DC990000103A24BF78C878C1FAD85207E9
:1001D00024BF30C830C144BF04680C6070470000C1
:1001E0000023002400250026103A28BF78C1FBD840
:1001F000520728BF30C148BF0B6070476E2900F01E
:100200007484702900F0BF85662909F01A84652975
:1002100009F01784672909F01484612909F013840F
:1002200003681B0A28BF41F08001692900F01A8188
:10023000642900F01781752900F014816F2900F0FE
:100240004D85782900F08B85E92900F0E784E429C1
:1002500000F0E484F52900F0E184EF2900F04A85FC
:10026000F82900F08A850368DB0928BF41F0800186
:10027000632901F0BF81732901F0C481E32901F0F2
:10028000CF81F32901F0D481002070471FB509F018
:10029000C6FB01F0E1FB04000020002108F00CFE89
:1002A000401C60600020002108F0F0FDE0601FBDF0
:1002B00010B510BD01F0A2FB1146FFF7E7FF07F0F4
:1002C00057F801F07FFC03B4FFF7F2FF03BC01F025
:1002D000C1FC00000948804709480047FEE7FEE7E7
:1002E000FEE7FEE7FEE7FEE7FEE7FEE7FEE7FEE7E6
:1002F00004480549054A064B70470000DD640008C4
:100300008901000858070020580D002058090020D6
:100310005809002053EA020C00F069802DE9F04BE7
:100320004FF00006002B1FBFB3FA83F503FA05F464
:1003300024FA05F65E4012BF1643B2FA82F502FABD
:1003400005F4C5F120051EBF22FA05FC44EA0C04A1
:10035000203556EA044C4FEA144418BF641C4FF091
:1003600000084FF00009904271EB030C39D30029CB
:1003700019BFB1FA81F701FA07F6B0FA80F700FA6F
:1003800007F6C7F120071EBF20FA07FC46EA0C0655
:100390002037B6FBF4FCA7EB0507103F07F01F0B57
:1003A000CBF120062CFA06F60CFA0BFB44BFB34641
:1003B0000026202FA4BF5E464FF0000B5BEA060C20
:1003C00008BF4FF0010B19EB0B0948EB0608ABFB1C
:1003D000027C06FB02CC0BFB03CCC01B71EB0C01B7
:1003E000C1E70B46024641464846BDE8F08B13B5CF
:1003F000084318BF4FF0FF300146AFF30080BDE85F
:100400001C4070477CB51D4616460C00009001D07C
:100410002044401E074B7B442A46694601903046E3
:1004200000F07DFB05461CB10020694600F08AFB08
:1004300028467CBD350700000FB41CB5084B06AA42
:100440007B4469460090059800F069FB0446002053
:10045000694600F077FB20461CBC5DF814FB0000E9
:10046000010700002DE9F0410646002410687529B7
:10047000314616A510D000F0A4FA002802DA404256
:1004800013A507E031688A0701D512A502E04907E4
:1004900004D511A5012401E000F09CFA00210A22F4
:1004A00006F1240709E0B0FBF2FCB0FBF2F302FB1B
:1004B0001C00303078541846491C0028F3D12346DC
:1004C0002A463046BDE8F04100F0B6BA0000000010
:1004D0002D0000002B000000200000002DE9F05F3F
:1004E000894604464FF0000ADFF874B1FB44C0F8B7
:1004F00020A02046E1688847002874D0252806D02F
:10050000D4E901219047206A401C2062F1E70026CF
:100510005F462046E16888472028054607DB312DE5
:1005200005D2781910F8200C08B10643F1E7B0079E
:1005300001D526F00406C4F81CA00027C4F818A0B2
:100540002A2D09D0284608F09AFC38B304EB870816
:10055000303DC8F8185019E059F8041B204604EB48
:1005600087029161E1688847012F054618D1E0694B
:10057000002820DA26F020061DE0D8F8180000EB4D
:10058000800005EB40003038C8F818002046E168CC
:100590008847054608F073FC0028EED1012F0AD0E9
:1005A0002E2D08D12046E16888477F1C0546022F82
:1005B00046F02006C4DBA069002803DA404246F07A
:1005C0000106A061F00701D026F010066C2D0BD0BB
:1005D000682D09D04C2D39D06A2D35D0742D35D0E9
:1005E0007A2D33D016E038E0E1682F462046884760
:1005F000B842054609D16C2F26D04FF48060E168DF
:10060000064320468847054604E06C2F1AD04FF475
:10061000807006430DB3A5F14100192802D820359A
:1006200046F400664A462946204626604E46FFF7B5
:10063000E5FD80B101280BD0F61D26F0070000F182
:10064000080956E74020E4E78020D8E70020D6E7F5
:1006500006F104094DE7284652E7206ABDE8F09FFD
:100660005A9500000FB400B58DB010A90990009103
:100670000B904FF0FF300A9000200C900648784411
:100680000690064878446A4607900F9909A800F03A
:1006900099FB0DB05DF814FB630700007B070000B9
:1006A0002DE9FF5F1D464FF0FF3B91464FF00008DC
:1006B0005F46D5E90146A96901987F1C8847296AE8
:1006C000824688470028F6D1BAF1FF3F0CD0002EB1
:1006D00024F4C06419DD600614D5BAF12B0F09D0DB
:1006E000BAF12D0F0ED103E0584604B0BDE8F09FDB
:1006F00044F48064A96901987F1C8847761E82466D
:10070000002E02DDBAF1300F03D0B9F1000F26D070
:1007100032E0A969761E01987F1C44F40074884772
:10072000002E824605DDBAF1780F06D0BAF1580FD7
:1007300003D0B9F1000F10D01EE0B9F1000F02D0C4
:10074000B9F1100F18D1A969761E01987F1C24F405
:10075000007488478246102002E0082000E00A204A
:10076000814609E0A96908FB0908761E01987F1CEB
:1007700044F4007488478246002E05DD4946504601
:1007800000F00CFB0028EDDAE96901988847A00524
:1007900002D46FF00100A8E7E00725D1600613D569
:1007A000600502D5C8F1000000E0404629680A1D36
:1007B0002A600968220501D5087015E0220701D5D5
:1007C000088011E008600FE02868011D29600068BA
:1007D000210502D580F8008006E0210702D5A0F8A7
:1007E000008001E0C0F8008038467EE72DE9FF5F19
:1007F0004FF000089946144646469169D2E901A790
:10080000DDF838B001988847054659EA0B0005D055
:1008100009E0A1690198761C88470546216A2846A7
:1008200088470028F5D1681C03D05FEACA7005D05C
:1008300015E04FF0FF3004B0BDE8F09F2068011DC7
:100840002160D0F800800AE05FEACA7001D108F8A0
:10085000015BA169761C01987F1E88470546002F21
:100860001ADD681C18D0B9F1000F0DD0E81705EBA0
:10087000D060421120F01F0059F822102A1A0120DE
:1008800090400142E0D107E0BBF1000FDCD12846E7
:10089000216A88470028D7D0E16901988847BBF1D1
:1008A000000F07D1002E05DD5FEACA7002D10021DA
:1008B00088F80010A068B84203DDBBF1000F03D038
:1008C00017B16FF00100B6E73046B4E710B5431C2E
:1008D00002E010F8011B71B18107FAD14FF001322B
:1008E00002C88C1A8C4314EAC211F9D0C01A0A0645
:1008F00003D0C01E10BDC01A10BD0A0401D0801E56
:1009000010BD0902FCD0401E10BD4FF0000200B522
:10091000134694469646203922BFA0E80C50A0E822
:100920000C50B1F12001BFF4F7AF090728BFA0E8D0
:100930000C5048BF0CC05DF804EB890028BF40F89C
:10094000042B08BF704748BF20F8022B11F0804FDE
:1009500018BF00F8012B704770477047704710B5FB
:1009600000F060FA006810BD10B5044600F05AFAB5
:10097000046010BD70B5044685690068C10601D5E4
:10098000302600E02026C00707D070BDD4E9012141
:1009900030469047206A401C20626D1EF6D570BD1F
:1009A00070B5044685690078C00707D170BDD4E9E9
:1009B000012120209047206A401C20626D1EF6D540
:1009C00070BD09684A0501D540B27047C905FCD51C
:1009D00000B2704709684A0501D5C0B27047C90521
:1009E000FCD580B2704770B50C460546012A05D08B
:1009F0002878800600D5EA69002302E0012305E09B
:100A00005B1C934202D2E05C0028F9D1A869E61889
:100A1000C01AA861286A184428622846FFF7AAFF6E
:100A200004E0D5E9012114F8010B9047B442F8D352
:100A30002846FFF7B5FF70BD2DE9F0470D469946F2
:100A40009246044600F124080168880604D5E0694E
:100A500021F01001216000E00120A84201DD471BC8
:100A600000E00027A1697A1902EB0900081AA061C9
:100A70002078C00602D42046FFF77CFF002608E05D
:100A8000D4E901211AF806009047206A401C761C20
:100A900020624E45F4DB2078C0060AD52046FFF7D9
:100AA00069FF06E0D4E9012130209047206A401C0C
:100AB0002062381EA7F10107F4DC07E0D4E9012128
:100AC00018F805009047206A401C2062281EA5F1F6
:100AD0000105F3DC2046FFF763FF2078000602D50E
:100AE0000220BDE8F0870120FBE711680268006A78
:100AF000530501D508700AE0D30501D5088006E04A
:100B0000130603D5C217C1E9000200E00860012006
:100B10007047000001694A1C02610878704700B5FF
:100B20008FB0CDE901310021059105497944CDE926
:100B3000031011466846FFF7D1FC0FB000BD00005E
:100B4000E5FFFFFF0A6802F8010B0A607047D1E970
:100B500000239A4202D2531C0B60107070470000B1
:100B60002DE9FF5F15468A460446DFF8AC80F8445D
:100B70000027D8E900103E46CDE9001010E03AF811
:100B800016106A4602A800F011FF411C07D0217818
:100B9000890603D5E269391891420DD80744761CBD
:100BA0002078800602D5E069B84205DDAE42E6DB7A
:100BB0003AF816000028E2D1A069C01BA0612046C7
:100BC000FFF7D8FED8E90010CDE90010002017E0AB
:100BD0003AF818106A4602A800F0E8FEB0F1FF3FAC
:100BE00081460BD000250DF1080B05E0D4E9012169
:100BF0001BF8050090476D1C4D45F7D308F1010027
:100C0000B0428046E4DB206A384420622046FFF789
:100C1000C7FEBDE8FF9F0000EA8E00002DE9F0410D
:100C20008046D21D22F007020025D2E90002F529F4
:100C300015A614D0011E72F1000106DA0023D0EBD4
:100C4000030063EB020211A608E0D8F800108B073E
:100C500001D50FA602E0490701D50EA601251146D0
:100C6000002408F1240704E000F0E0F830323A559F
:100C7000641C50EA0102F7D12B4632462146404619
:100C8000BDE8F041FFF7D8BE000000002D000000D5
:100C90002B0000002000000030B4002100F12404EB
:100CA00008E002F00705D208303542EA4372DB085B
:100CB0006554491C52EA0305F3D10468002310A2CD
:100CC000250708D504F020040C4304D0C46901238F
:100CD0000CA2641EC46130BCFFF7AEBE10B5044662
:100CE00021461068FFF776FE02462046BDE8104018
:100CF0000023D1E7D21D22F00701D1E90023CBE781
:100D00000000000030000000F0B40D460188090525
:100D100002D5214C7C4402E01F4C7C440E3400215F
:100D200000F1240608E002F00F071209E75D42EA2D
:100D300003721B097754491C52EA0307F3D1027866
:100D40000023120704D5702D06D009B102231134F7
:100D50002246F0BCFFF770BE01231034F8E770B5EF
:100D600004460D4621461068FFF734FE0246294628
:100D70002046BDE870400023C6E7D21D22F00703DD
:100D8000D3E90023C0E70368126843F0200303603F
:100D90000823C3610023B7E74C8D00003A2800D236
:100DA000303820F02002412A01D3A2F137008842D6
:100DB00001D34FF0FF30704702681144137801608F
:100DC00018467047D1600549794451610449794416
:100DD000116200211161114600F02EBCEDFFFFFFF2
:100DE000E5000000426842B1016811F8013B23B1FF
:100DF000521EC0E90012184670470121C160881ECA
:100E0000704742685AB1C368016843B983688B422E
:100E100005D0491E521CC0E90012002070474FF057
:100E2000FF307047004870474000002030B5B0F1F7
:100E30000A0271F100034FEA900E4EEA817EB0EB98
:100E40000E0061EB91014FEA101E4EEA017E10EB9D
:100E50000E0041EB11114FEA102E4EEA016E10EB1D
:100E60000E0041EB11214FEA104E4EEA014E10EBFD
:100E70000E0041EB1141401841F100014FEAD00052
:100E800040EA41704FEAD1014FEA810444EA90748C
:100E900010EB800544EB01046D1944EB0404521B74
:100EA000A3414FF0000348BF0A3200D530BD401CBB
:100EB00041F1000130BD10B5044600F0C5FD0068E9
:100EC000005D00F0010010BD2DE9FF4F0C461E46ED
:100ED0004FF0FF378BB0D2E90001DDF860800A9057
:100EE0008A46C1F30A5505B93D46002108464FF030
:100EF0000000BAF1000F00F4400005DA00EB8000BA
:100F00004FF4400101EA50004FEA9059B9F1010F46
:100F100000DDB9460A9850EA4A000ED044F6105057
:100F2000A5F2FF3545432F14B8F1000F1ED07542CE
:100F3000291E1EDDC9F100021CE0B8F1010F4FF0BF
:100F4000000001D0302103E0F24305E02154401CB1
:100F5000B042FBDB30460022002121540B99C1F83E
:100F60000880C1E900200FB0BDE8F08FBD1B6D1CEB
:100F7000DEE74A4600DA694206A800F0B1FD06AB9A
:100F800093E8070003AB83E8070050460A9907F08F
:100F900059FB8DE80700A0F500501F38009003981A
:100FA000002D0ADD42F21F014A460844002303A92E
:100FB0000390684607F0C2FD09E0A0F500504A46DC
:100FC0001F38002303A90390684607F0CCFD8DE885
:100FD00007000004000C03D04FF0FF30410800E090
:100FE0001046B8F1000F03D00022009215461EE013
:100FF000751E05D4FFF71AFF303262556D1EF9D504
:10100000B3460122084302D000227F1C04E020786E
:10101000302801D100227F1E002A099784D01DE0CC
:10102000112D07DAFFF702FF303262556D1C50EACE
:101030000102F5D1084302D00098C8B10EE00021AA
:10104000681E05E0235C625C63542254401E491C08
:101050008142F7DBAB46A81B401E0990002004F834
:101060000B000B98099AC0F80880C0E9002B7AE7BA
:1010700011264FF0000857E72DE9F04F8846044647
:10108000D21D22F0070191B0D1E90001CDE90A019A
:1010900007F0A0FE02460B98C00F01D02D2007E0FC
:1010A0002068810701D52B2002E0202101EAC00041
:1010B000032A099001D0072A05DB03464146204652
:1010C00000F0CEFC0BE12078800601D5E06900E05D
:1010D0000620B8F1650F814606D0B8F1660F18D02A
:1010E000B8F1670F70D131E00020B9F1110F009015
:1010F00001DB112301E009F101030AAA01A90CA8EF
:10110000FFF7E2FEDDE90C70002609F101058346D8
:1011100047E001204B4600904FF000470AAA01A982
:101120000CA8FFF7D1FEDDE90DB00C995D46002655
:1011300010B909F101000D18B9EB050003D4C0F195
:10114000FF3609F10105A5EB09002BE0B9F1010F0C
:1011500001DA4FF001090020B9F1110F0090484663
:1011600001DD112300E003460AAA01A90CA8FFF73C
:10117000ABFEDDE90C704D46002683462078000763
:101180000AD4AB4500DA5D4601A8012D04DD411902
:1011900011F8011C302907D04F4502DA17F1040F6E
:1011A00004DA012082460FE06D1EEEE7002F02DC1C
:1011B000ED1B3E4403E0781CA84200DD7D1CB81BFB
:1011C00000F1010A4FF000472078000703D4AA4538
:1011D00001DB4FF0FF3A0021B7F1004F0DF143085A
:1011E0008DF8431024D002202B23002F01DA7F42F8
:1011F0002D230A21021EA0F1010000DC5FB197FB44
:10120000F1FC97FBF1F201FB1C7C17460CF1300C52
:1012100008F801CDEEE7A8F1010003702188090567
:1012200001D5452100E06521A0F1010800F8011C6D
:1012300009980FA9A1EB0807FF1D00B10120411972
:1012400001EBEA70A1693844081A401EA0612078B9
:10125000C00602D42046FFF78DFB099828B1D4E9D7
:1012600001219047206A401C20622078C00622D5C8
:101270002046FFF77FFB1EE0002E04DBB34502DDB6
:1012800001A8805D00E03020D4E901219047206A68
:10129000401C2062761CAAF101005FEA000A0AD114
:1012A00000F0DAFBC0680168405CD4E90121904796
:1012B000206A401C2062281EA5F10105DCDC07E045
:1012C000D4E9012118F8010B9047206A401C2062E4
:1012D000381EA7F10107F3DC2046FFF761FB03206E
:1012E00011B041E62DE9F04F04460D46D21D22F023
:1012F000070089B0D0E900974846394607F06AFDF3
:101300000246F80F01D02D2307E02068810701D5A0
:101310002B2302E0202101EAC0038DF820300BB11D
:10132000012000E00020032A824601D0072A04DBC6
:101330002946204600F094FB3FE12078800601D446
:101340000D2500E0E569C7F30A560D2D49DA0021A5
:101350004FEA175B08464FF00000002F00F44000F2
:1013600007DA00EB80004FF4400100EBD07001EA97
:1013700060008115012901DD4FF0FF3100224FEAA5
:10138000850CBCF1180F06D31346ACF118004FF0D2
:101390008052C24003E04FF4801323FA0CF30CF1A7
:1013A0000C0CBCF1200F04D3ACF1200C09FA0CF0AA
:1013B00001E007FA0CF000294FF0004801DD18B9F0
:1013C0000FE00ED140450CD319EB02095F4121B962
:1013D000404502D19F4329EA0209BBEB175F00D0C9
:1013E000761C2088000502D57B48784402E07A48C4
:1013F0007844193808AA302302F80A30037C0AF12D
:101400000101002E0AF1020A53546A4602DC4FF031
:10141000300101E04FF031014FF001088DF800106C
:1014200002D0A6F2FF3603E059EA470100D06B4E26
:10143000002D02DC2178090704D54FF002082E2187
:101440008DF80110C44600210BE0C7F303433F01B0
:10145000C35C491C6D1E02F80830052908F101081B
:1014600001DA002DF1DC00210CE000EB1973491CBE
:101470001B786D1E082902F808304FEA091908F197
:10148000010801DA002DF0DC21688B0602D516E098
:10149000A8F10108E04505DD02EB080313F8013C63
:1014A000302BF5D0B8F1000F09DD02EB080313F87B
:1014B000013C2E2B03D1090701D4A8F10108002D0E
:1014C00005DD3E2102F808106D1E08F10108407C80
:1014D000002E02F8080008F1010804DA2D207642F7
:1014E00002F8080002E02B2002F808000A214FF45D
:1014F0007A70864208F101080BDB96FBF0F330337B
:1015000002F8083096FBF0F308F1010800FB1366BF
:1015100001E0642E0CDB642096FBF0F3303302F81C
:10152000083096FBF0F308F1010800FB136601E0B8
:101530000A2E06DB96FBF1F0303002F8080008F1C5
:10154000010896FBF1F001FB1060303002F8080052
:10155000A16908F1010808EB050202EB0A00081A6C
:10156000A0612078C00602D42046FFF703FA216A62
:1015700008AE01EB0A00206204E0D4E9012116F86C
:10158000010B9047BAF1010AF7D22078C00602D5C4
:101590002046FFF7EFF96E4609E016F8010B3E28EA
:1015A0000FD0D4E901219047206A401C2062B8F195
:1015B0000108F2D22046FFF7F3F909B00320BDE895
:1015C000F08F206A2844206203E0D4E90121302012
:1015D00090476D1EEBD3F8E7B186000002FCFFFFD9
:1015E00010B5436913B1AFF3008001E0FFF7FBF9D9
:1015F000012010BD127800F124010A7000224A7007
:101600000122EDE711684FF0FF32E9E710B54369B9
:1016100013B1AFF3008001E0FFF7A2FA012010BD83
:10162000128800F1240182840022C2840122EDE7A5
:1016300011684FF0FF32E9E72DE9F34F4FF0000A50
:101640000C4656468DB001200C9001F10C000B9019
:1016500062690B9801219047051E2DD0252D2CD0B5
:10166000216A8847C0B162690B9801219047216ABD
:1016700088470028F7D16269411E0B98904700E027
:10168000761CA1690D988847216A88470028F7D100
:10169000E1690D988847DBE7A1690D988847A84262
:1016A000074601D1761CD3E7E1690D9888477F1C76
:1016B00002D1BAF1000F6FD06BE162690B9800277D
:1016C0003D46394690472A2804D162690B9801218A
:1016D00090470125DFF8D08262690B98012190477D
:1016E000A0F130010A290AD24745E5DC07EB870162
:1016F00000EB4107303FDFD445F01005ECE7E90689
:1017000001D46FF000476C280AD04C2814D0682808
:1017100015D06A280DD074281CD07A281AD01DE064
:1017200062690B98012190476C2802D045F00405AE
:1017300014E045F002050DE045F020050AE062697D
:101740000B9801219047682802D045F0080505E074
:1017500045F4006562690B9801219047C4E901577F
:1017600065283DD019DC58287AD00CDC452837D0C4
:1017700004DC252826D041289ED131E046282FD0F0
:10178000472899D12CE05B2877D0612828D063289E
:101790007CD0642823D15AE0F6E06F2848D008DCDA
:1017A00066281DD067281BD0692821D06E2816D145
:1017B00027E0702845D0732868D0752847D078284E
:1017C0000DD14DE0A1690D988847252805463FF4C5
:1017D00069AFE1690D9888476D1C3FF46AAFD8E0A6
:1017E0000D9923466A466FF00100AFF30080C5E013
:1017F00045F0400023464FF000026060A80736D451
:101800003EE0E8077FF447AF2068011D21600068D3
:10181000290501D506701BE7290701D5068017E7C2
:10182000A90703D5F117C0E9006111E706600FE7CA
:1018300045F0400023464FF008026060A80716D428
:101840001EE040F60E0125EA0100606016E045F05A
:10185000400023464FF00A026060A80707D40FE05B
:1018600045F040006060A80708D5234610220D9976
:101870006FF00100AFF3008080E007E01022234604
:101880000D996FF00100FEF70BFF77E04FF00009B4
:1018900063284F46C8464B46CB4602D05B2806D04D
:1018A00038E0E80601D40120A060012732E0626937
:1018B000D4F80CB00B98012190475E2807D14FF067
:1018C000010949466269D4F80CB00B989047216928
:1018D00039B900210A4603AB43F82120491C0829E5
:1018E000FADBD8B3216949B308F1010862690B98A2
:1018F000012190475D28F4D1B9F1000F09D00020F3
:1019000003A951F82020D24341F82020401C082888
:10191000F7DB03AB2069002820794FEA40701ED026
:101920005B462246CDF80080CDE901970D9900284D
:101930006FF0010020DAAFF300801FE0C11703AAA7
:1019400000EBD1614B1121F01F0102EB8302411A20
:1019500013680120884003431360C7E719E00D991D
:10196000224600286FF00100009702DAAFF30080F2
:1019700004E0FEF73BFF01E0AFF3008000280ADA45
:10198000401C06D10C9820B14FF0FF300FB0BDE8DD
:10199000F08F5046FAE7E90701D10AF1010A06443F
:1019A00000200C9054E60000CCCCCC0C2DE9F0418A
:1019B00016460C46054600F047F8036893F8010107
:1019C000012807D0FF2C12D8185D80B101202C709F
:1019D000BDE8F081D3F807013246214603F2071330
:1019E000C7182846BC46BDE8F041002360474FF0C9
:1019F000FF30EDE700487047400000207546FFF7D4
:101A0000F9FFAE4605006946534620F007008546BB
:101A100018B020B5FEF76CFCBDE820404FF0000682
:101A20004FF000074FF000084FF0000BAC46ACE859
:101A3000C009ACE8C009ACE8C009ACE8C00921F0B5
:101A400007018D467047000010B500F005F8001D35
:101A500010BD00BF657400000048704760000020A2
:101A60002DE9F0411F46044603260168072A01F4C8
:101A7000006004DB08B116A505E016A503E008B177
:101A800015A500E015A521F010002060A069C01E7A
:101A9000A0610FB1401EA0612046FEF76BFF4FB161
:101AA000D4E9012138469047206A401C2062C01CBE
:101AB000206206E0206AFAE7D4E9012115F8010B5B
:101AC0009047761EF8D22046FEF76AFFBDE8F08107
:101AD0004E414E006E616E00494E4600696E6600D2
:101AE0002DE9F047814616468AB0354878440DC83E
:101AF0008DE80D0032487844801C03AC0DC884E8A2
:101B00000D0041F69B300844372190FBF1F290FB29
:101B1000F1F5A5F1800501FB12041B3C02D56442DE
:101B2000012000E00020DFF898A080460027FA445A
:101B3000AAF1BE0A0EE0E0070AD03246684607EB7B
:101B4000470101230AEB810107F00DF88DE807003A
:101B500064107F1C002CEED1194F7F44AE3F19E07A
:101B6000E80715D007EB04100DF1180A90E80E00F5
:101B70008AE80E00C068F04201D1981908903246F8
:101B8000012306A903A806F0EEFF03AB83E80700D4
:101B90006D10641C002DE3D14FF0010332466946FD
:101BA000B8F1000F03A802D006F0C8FF01E006F06C
:101BB000DAFFC9E90001C9F808200AB0BDE8F087DA
:101BC0004080000010B50446AFF300802046BDE819
:101BD0001040FEF778BB000030B44FF0013C50F8E5
:101BE000042B51F8043BCCFA52F4D51A20D1FCB99D
:101BF00050F8042B51F8043BCCFA52F4D51A17D103
:101C0000B4B950F8042B51F8043BCCFA52F4D51A6D
:101C10000ED16CB950F8042B51F8043BCCFA52F4B5
:101C2000D51A05D1002CDAD030BC4FF00000704737
:101C300029BAB1FA81F111F01801D1F120008440E4
:101C4000F2D1CA40CB4012F0FF0213F0FF0330BCC8
:101C5000D01A704701491820ABBEFEE726000200EB
:101C600070470000FEE7000040F2E000C2F2000012
:101C700000F0CCB940F2E000C2F2000000F0C6B9BA
:101C800040F24010C2F2000000F0C0B940F2401033
:101C9000C2F2000000F0BAB9006846F60001C4F2D2
:101CA0000001884210D046F20041C4F2000188428F
:101CB00018BF704740F20040C4F2020000F54060D7
:101CC0000121002200F09EBD40F20040C4F202005B
:101CD0008021002200F096BD2DE9F04F81B00E4624
:101CE0000C9998460091DDE90DBADDE90A790221E7
:101CF0001546044600F06CF8002001214FEA4B1213
:101D00004FEA4A13C6E90050C6E90200C6F810803F
:101D100030753962C7E90020C7E90230C7E9040914
:101D2000C7E90601009A204639467A6201B0BDE84B
:101D3000F04F00F063B800007047000091ED460AD4
:101D400091ED071AB8EEC00A21EE000A90ED001AD4
:101D5000002020EE010A9FED051AC1F8180120EEBF
:101D6000010ABDEEC00A10EE100A704700007A4466
:101D700010B5044605F030FE40F2BC61C2F200012D
:101D80000968401A4FF47A71614388420AD940F2D7
:101D9000A001C2F20001012206A00A60BDE81040C5
:101DA00003F020BF40F2A000C2F200000021016059
:101DB00010BD00BF5265636F6E6E656374696E67B8
:101DC00020746F20436C69656E742E2E2E0D0A00F0
:101DD00090F82020013A012A07D8006800F1140287
:101DE0000020136819431160704700F1240201209C
:101DF0004FF480211368194311607047B0B590F813
:101E00002020013A012A2FD846F20060C4F20000D7
:101E1000026842F001020260026822F47C52026011
:101E2000D1F814E0CC694A6A0368012C43EA022223
:101E300002600EF01F024FF0010303FA02F2C369C1
:101E40006FEA020C23EA0203C36113D02CBBC36800
:101E500003EA0C03C360CB688C8844EA034300EBBD
:101E6000CE0423640B4611E0416A41F480214162B3
:101E70000120B0BDC3681343C3600B688C8844EA7B
:101E8000034300EBCE04236401F10C038C681B8830
:101E900043EA044300EBCE04636443688D6943EA7C
:101EA0000204D1F810E0096A002D08BF03EA0C040F
:101EB00044604369BEF1000F43EA020408BF03EA2D
:101EC0000C040129446102D1C1691143C161016857
:101ED00021F0010101600020B0BD0000704700004A
:101EE00010B590F82040013C012C78D8D0F800C003
:101EF00000297DD0DCF81040A4077DD00CEB011C3C
:101F0000DCF8B0410CF5D87E14F004049460DCF8E1
:101F1000B04119BFE4085460640D1460DEF800405D
:101F20000CF5DA7E04F00204D460DCF8B441240736
:101F30005ABFDEF8004004F00F0408241461DEF8F4
:101F400000400029C4F307249461DEF800404FEA02
:101F500014445461DCF8B8211A70026802EB0112D3
:101F6000D2F8B8214FEA12225A70026802EB01122D
:101F7000D2F8B8214FEA12429A70026802EB0112BD
:101F8000D2F8B8214FEA1262DA70026802EB01124D
:101F9000D2F8BC211A71026802EB0112D2F8BC21FE
:101FA0004FEA12225A71026802EB0112D2F8BC21E8
:101FB0004FEA12429A71026802EB0112D2F8BC2178
:101FC0004FEA1262DA71006814BF00F1100100F1EB
:101FD0000C01002020220B681A430A6010BD00F19A
:101FE000240101204FF480220B681A430A6010BDBF
:101FF000DCF80C40A40781D100F1240101204FF44A
:1020000000120B681A430A6010BD00002DE9F04F62
:1020100081B0044600684669D0F804908768D0F81B
:102020000CB0D0F810A0D0F81880F10703D100252B
:1020300030071CD423E0F90710D00121BA078160D2
:1020400009D4780700F1AA80380700F1B080204653
:1020500000F06CFA02E0204600F06AFA0025F8056C
:1020600000F18480F80300F1AA80300707D51BF047
:10207000100004D0206845F400751021C16070077D
:1020800008D51BF0080005D020680821C160204653
:1020900000F0F2F9B00706D52068C068800702D0CA
:1020A000204600F0EBF9700607D51AF0100004D0B6
:1020B000206845F4806510210161B00608D51AF04A
:1020C000080005D0206808210161204600F0FAF9D7
:1020D000F00606D520680069800702D0204600F08F
:1020E000F3F9B00308D519F0100005D020681021CD
:1020F0004160204600F0EAF9F00308D519F0080025
:1021000005D0206808214160204600F01BFA300409
:1021100040F18F805FEA497040F1888006F480705A
:1021200008EA102028435FEA8871014648BF41F061
:102130000201B20558BF01465FEA48700D4648BF2C
:1021400045F00405700558BF0D4630056ED518F0F2
:1021500070006BD010380009052862D8DFE800F065
:10216000035356595C5F45F008055AE020684FF468
:102170008071BA0581600AD4780512D4380519D463
:10218000204600F0D7F9F8037FF56FAF17E020463F
:1021900000F0D2F9F8037FF568AF10E04FF4006566
:1021A0005DE705F50055F8037FF55FAF07E04FF4F5
:1021B000805554E705F58045F8037FF556AF206854
:1021C0004FF48031BA0381600AD478030FD4380306
:1021D00013D4204600F0B2F930073FF548AF4EE780
:1021E000204600F0ADF930073FF541AF47E705F570
:1021F000004530073FF53BAF41E705F58035300737
:102200003FF535AF3BE745F010050AE045F0200506
:1022100007E045F0400504E045F0800501E045F4A5
:1022200080752068816921F0700181612068042136
:1022300041604DB1606A40EA05012046616201B02B
:10224000BDE8F04FFFF74ABE01B0BDE8F08F0000D7
:10225000B0B5C8B1044690F8200010B9204600F08F
:1022600077F82068016841F00101016000F0D0FAC0
:10227000054600BF20684168C90707D100F0C8FAC9
:10228000401B0B28F6D312E00120B0BD016821F0FD
:102290000201016000F0BCFA054600BF20684168F9
:1022A00089070DD500F0B4FA401B0B28F6D3606AFD
:1022B000052140F400306062012084F82010B0BD98
:1022C000217E0268012922F0800308BF42F08003CA
:1022D0000360617E0268012922F0400308BF42F0DA
:1022E00040030360A17E0268012922F0200308BF99
:1022F00042F020030360E17E0268012942F01003EE
:1023000008BF22F010030360217F0268012922F038
:10231000080308BF42F008030360617F02680129D7
:1023200022F0040308BF42F004030360D4E901C2B1
:10233000D4E9033561691A432A431143ACF1010220
:102340001143C16100200121606284F82010B0BDFA
:10235000B0B586B00021CDE90411CDE902110068C5
:1023600046F60002C4F20002904201912FD046F2DC
:102370000041C4F2000188427BD140F2B811C2F2A0
:1023800000010A6843F64000C4F20200531C0B60CF
:1023900052B900210091016841F0007101600168AB
:1023A00001F00071009100990021009150F8101C7B
:1023B000152441F0020140F8101C50F8100C1425AF
:1023C00000F00200009000984FF4407031E043F6B6
:1023D0004000C4F202000091016841F08061016098
:1023E000016801F080610091009940F2B811C2F2D9
:1023F00000010A68531C0B6052B90021009101686A
:1024000041F000710160016801F0007100910099D4
:102410000021009150F8101C412441F0020140F8C5
:10242000101C50F8100C402500F00200009000989D
:10243000602001900220029000200390032004906D
:102440000920059040F20040C4F2020001A900F00A
:10245000EDF828460121002201F058F8284601F045
:1024600045F820460121002201F050F8204601F0F5
:102470003DF806B0B0BD000070470000016846F6A8
:102480000002C4F20002914211D046F20042C4F2AE
:102490000002914218BF704740F26C4240F25C4328
:1024A000C2F20002C2F200030021FFF719BD40F2A0
:1024B000884240F26443C2F20002C2F200030021EB
:1024C000FFF70EBD70470000704700007047000026
:1024D000B0B5044690F8200001281DD1022084F8F0
:1024E00020002068016821F00101016000F090F9EE
:1024F000054600BF20684068C00713D000F088F987
:10250000401B0B28F6D3606A40F40030606205205F
:1025100084F820000120B0BD606A40F400206062B1
:102520000120B0BD00206062B0BD00007047000017
:1025300070470000704700007047000070470000BF
:10254000704700007047000070B5866D044600F0CB
:102550005FF994F8351002292ED105462068216CC8
:10256000026822F016020260426922F08002426193
:1025700009B9A16C19B1016821F008010160016875
:1025800021F0010101600068C00708D000F040F9A7
:10259000401B052817D820680068C007F6D1E06DF9
:1025A0003F2101FA00F0B060012084F835000020DE
:1025B000002184F8341070BD802060650120002166
:1025C00084F8341070BD20206065032084F8350045
:1025D000002184F8341070BD90F83510022909D11B
:1025E000052180F835100068016821F001010160C3
:1025F00000207047802141650120704790F8350028
:1026000070470000B0B5044600F002F9054640F2FC
:102610000000C2F200000078611C18BF044400BF33
:1026200000F0F6F8401BA042FAD3B0BD2DE9F04F00
:1026300082B000F13E4241F6004502F1FF77C4F25C
:10264000020508224FEAB726A84208BF0722072E34
:1026500038BF4FEAB7224FF0010A002400274FF09D
:102660000008009208E000BF023708F10108202F9F
:1026700004F1040400F0B4800E680AFA08F916EABE
:10268000090FF1D0D1F804A00AF0030BABF1010659
:10269000012E17D80322866802FA07FECA6826EAC6
:1026A0000E06BA40324382604268CAF3001522EA3D
:1026B000090205FA08F54FEA480C6FEA0E062A43AC
:1026C00042600BE00322BA40D643BBF1030FBC4685
:1026D00004D1BC464FF0030B22E000BFC2688D68F6
:1026E000324005FA0CF52A43BBF1020FC26017D144
:1026F0006FF0030202EA5802024404F01C030F25A3
:10270000D2F820E005FA03FA0D692EEA0A0E05FA5E
:1027100003F343EA0E031362D1F804A00AF0030B9B
:1027200002680BFA0CF332401A431AF4403F4FF0A0
:10273000010A026098D0002243F644030192C4F2D9
:1027400002031A6843F6004E42F480421A601A6887
:10275000C4F2010E02F480420192019A28F00302B1
:102760004FF6084C7244CFF6FF7C52F80C3004F060
:102770000C060F25B540AB43009D05FA06F6334322
:1027800042F80C30DEF808204B6842EA090643F6AE
:102790000C4CDD0258BF22EA0906CEF80860C4F2EC
:1027A000010CDCF800209D0242EA090658BF22EA2B
:1027B0000906CCF80060DEF804209D0342EA090611
:1027C00058BF22EA0906CEF80460DEF80020DB03D9
:1027D00042EA090658BF22EA0906CEF8006043E73C
:1027E00002B0BDE8F08F00000069084018BF01206A
:1027F00070470000426902EA0103914341EA034144
:1028000081617047002A08BF090481617047000098
:1028100040F25070C2F2000000687047704700003C
:10282000704700002DE9F04182B0D0F800800446E6
:10283000C4465CF8043FC06A94F83E5094F83D20CA
:10284000402D01D0102D20D1D8F81860D8F81410E0
:10285000CF0763D1B0F12A4F00F0E183B0F52A0F22
:1028600000F0DD8313F400704FF0010787EA502E6B
:1028700018BF11F0080055D0606B616C0028C9B218
:10288000C8F8101040F0028102E1206C00280CBF53
:10289000D8F818500025D8F8141013F4007618BF93
:1028A00011F0020040F0A680002E18BF11F01000B9
:1028B00040F00B8142F00800292840F0958158052E
:1028C00040F1BC8101F08400802840F0B78194F889
:1028D0003D00618D002900F0A283616A292811F86A
:1028E000012BC8F810206162618DA1F101016185A1
:1028F000618D08BF002940F09283DCF80000282198
:1029000020F48060CCF8000021202063204684F869
:102910003D1002B0BDE8F04100F07CBD980531D417
:102920004FF0010EBEF1000F32D111F002002FD096
:1029300094F83E00E26A216B94F83D30222B40F07F
:10294000B8804028236D08BF002B00F0B280206DB6
:10295000002840F094812069B0F5404F40F08F810D
:1029600000200190D8F814000190D8F818000190C8
:102970000198D8F8000040F48070C8F80000206D7D
:102980000130ACE2E06AB0F52A0F57D101205AE0DD
:10299000DCF80000760700F4006000F1DC8000281D
:1029A00040F03D83580540F1A68101F044004028E5
:1029B00040F0A18194F83D00222840F03083E26A83
:1029C000608D0428C0F0A082D8F81000616A0870F9
:1029D000606A01306062608D01386085608D032817
:1029E00040F01D832068416821F48061416002B09D
:1029F000BDE8F081206C002818BFD8F8185094F872
:102A00003D0000F02800282840F0E080DCF80000BD
:102A1000002320F48060CCF80000012020EA95011A
:102A200028064FF0180058BF0C20225A204684F880
:102A30003C3002B0BDE8F041FFF7F2BEE06AB0F111
:102A40002A4F01D10820E06294F83E0040280CD1C2
:102A5000206D616C002801F0FE0018BF40F00100FD
:102A6000C8F8100002B0BDE8F0812069B0F5804FD1
:102A700040F0F48094F83D00616C212801F0FE01E3
:102A800018BF0131C8F81010606B08B1C06B38B9BD
:102A9000A06B002800F0C382C06B002800F0BF824A
:102AA000DCF8000040F40060CCF8000002B0BDE8A3
:102AB000F08100200190D8F814000190D8F8180097
:102AC0000190019802B0BDE8F08194F83D50D8F82B
:102AD000040020F4E060C8F8040000200190D8F859
:102AE00014000190D8F8000040F00100C8F8000080
:102AF0000198D8F8000020F48060C8F80000D8F8E9
:102B00000400000540F1528145F008002A2840F0F9
:102B10002D81A06B016849686185618D19B1216CB7
:102B200041F004012164DCF8001021F40061CCF8CC
:102B30000010FFF763FD012800F03881A06B45F21B
:102B40001951C0F600010165FFF746FD002800F0AD
:102B50002D81A06B28E1002840F06182580540F1EA
:102B6000DF8001F08400802840F0DA8094F83D2076
:102B700094F83E10E06A212A40F0B581238D002BA5
:102B800040F0B181DCF8001010F5803F21F4E061E5
:102B9000CCF8001018BF082840F06282D8F8000076
:102BA000202140F40070C8F800000020206384F861
:102BB0003D1094F83E1084F83E004029204640F035
:102BC0005B8202B0BDE8F04100F0DEBB0020019066
:102BD000D8F814100191D8F818100191019984F8CF
:102BE0003C0002B0BDE8F081580569D501F0440011
:102BF000402865D194F83D00618D002900F00F82D6
:102C0000D8F81010626A2A281170616A01F1010176
:102C10006162618DA1F101016185618D08BF0029AB
:102C200040F0FD812068416821F4806141602220EC
:102C300028212063204684F83D1015E1002E18BF9E
:102C400011F0040000F0EB81608D002800F0E781B6
:102C5000606A10F8011BC8F8101024E2206D0028EB
:102C60003FD0206D012840F0DA81606C062101EA36
:102C7000D010F130C8F8100002B0BDE8F081608DCE
:102C800070B1608D012840F0F480202A18BF082A16
:102C900040F0D181D8F8000020F48060C8F800002E
:102CA00000200190D8F814000190D8F81800019085
:102CB0000198D8F8000040F40070C8F800000DE159
:102CC000002E18BF11F0040000F0A981608D0028CB
:102CD00000F0A581D8F81000616A0870606A0130C0
:102CE000E1E1606C062101EAD010F030C8F8100074
:102CF00002B0BDE8F08101F00400012181EA9000FA
:102D000050EA0E0040F08B81E26A608D042840F0AA
:102D10006A81D8F8040020F48060C8F80400BCE19F
:102D200001F00400012181EA900050EA0E0040F019
:102D30007681212A40F06B81E16A94F83D002128D8
:102D400040F06D81608D00287FF482AFDCF80000D8
:102D500011F5803F20F4E060CCF8000018BF08298E
:102D60003FF41CAF20293FF419AF7CE1606B016890
:102D700049686185618D19B1216C41F004012164BC
:102D8000DCF8001021F40061CCF80010FFF736FCED
:102D900001280BD0606B45F21951C0F600010165A6
:102DA000FFF71AFC10B1606B016D8847608D60B150
:102DB0002068416949072FD44169490639D4608D9B
:102DC00018B1206C40F004002064206C28B120462B
:102DD00002B0BDE8F04102F02DBC2A2D07D1002041
:102DE0002063282084F83D00204600F011FB94F871
:102DF0003D0028282AD10020CFF6FF70E062002194
:102E00002020216384F83D00204684F83E1002B063
:102E1000BDE8F04100F0B0BA0069616A0870616A0B
:102E2000206801316162618D01396185416949061E
:102E3000C5D50069616A0870606A01306062608DA2
:102E400001386085608D0028BBD1BEE7222D206B44
:102E500018BF222840F0E38000212020216384F85D
:102E60003D00204684F83E1002B0BDE8F04100F07D
:102E7000CFBA618DD8F8000002290AD1102A00F2D9
:102E80003381012114239140C0F20103194200F063
:102E90002B8140F48060C8F80000D8F804000005D9
:102EA00013D5501E1F2800F21A81012101FA00F0EB
:102EB00048F28101C8F20001084200F01081DCF8FC
:102EC000000040F48050CCF8000000200190D8F8B9
:102ED00014000190D8F81800019001980020206596
:102EE00002B0BDE8F081212A04D0222A08BF40297F
:102EF00040F09580608D002800F0948094F83E00AA
:102F0000402800F08680A3E6E16A012800F28A806A
:102F1000022900F087800020019040F20800C2F2F0
:102F2000000000684BF28951C008C1F2F841A0FBD3
:102F30000101080A00EB800001900198013801901E
:102F40000198002800F0E080D8F80000800520D526
:102F50000198013801900198002800F0D580D8F838
:102F60000000800515D501980138019001980028CE
:102F700000F0CA80D8F8000080050AD50198013811
:102F800001900198002800F0BF80D8F8000080056B
:102F9000D3D4D8F8000020F48060C8F80000D8F836
:102FA000040020F4E060C8F80400D8F81000616A5A
:102FB0000870606A002101306062608D01386085B0
:102FC000202084F83D0094F83E0084F83E1040280C
:102FD00000F0E980082A4FF0000100F0F280202A7A
:102FE00018BF1221EDE0608D03284AD1DCF8000003
:102FF000022A20F48060CCF800004ED0042A4CD085
:10300000D8F8000020F48060C8F8000045E0402DAA
:1030100005D1204602B0BDE8F04102F0C9BB02B0C4
:10302000BDE8F081DCF8000020F48060CCF80000FE
:1030300002B0BDE8F08112F5803F3BD1D8F8000026
:1030400020F48060C8F80000D8F8040000057FF57F
:1030500027AED8F8000020F48060C8F8000034E7FC
:1030600020283FF49BAD112020630020202184F80C
:103070003E00204684F83D1002B0BDE8F04100F06B
:103080007FB9608D022808D1102A01D0012A5BD1B6
:10309000D8F8000020F4806061E0D8F81000616A80
:1030A0000870606A01306062608D0138608502B02E
:1030B000BDE8F081012A02D012293FF4EBADD8F827
:1030C0000000102AC7D8012191401422C0F2010249
:1030D0001142C0D040F48060C8F80000F5E612F557
:1030E000803F3FF4ECAEF0E620F48060C8F80000CA
:1030F000D8F8000040F40060C8F80000D8F80400D8
:1031000000053FF5CEAEE0E6206C40F020002064E4
:10311000D8F8040020F4E060C8F80400D8F81000E3
:10312000616A0870606A002101306062608D013858
:103130006085202084F83D00204684F83E1002B0CF
:10314000BDE8F04100F044B8D8F80000042A01D0EE
:10315000022A02D140F4806001E040F40070C8F817
:103160000000D8F81000616A0870606A2168431C8A
:103170006362638D013B638509694170606A216800
:1031800001306062608D01386085486820F44070CD
:103190004860202084F83D0094F83E00002140283B
:1031A00084F83E1006D12046216302B0BDE8F0410C
:1031B00000F0E8B8082A4FF0000102D0202A18BF1A
:1031C00012212046216302B0BDE8F04100F0D6B8DC
:1031D00070470000B0B5B0B3044690F83D0028B980
:1031E000002084F83C00204600F0D0F8242084F829
:1031F0003D002068016821F001010160016841F48F
:1032000000410160016821F40041016000F06AFAA8
:1032100048F28041C0F21E0140F6001288424FF091
:103220000001C0F23D02656838BF0121904248F2BA
:10323000A1624FF00003C0F2010238BF01239542A2
:1032400038BF0B460BB10120B0BD4DF68361C4F20F
:103250001B31A0FB011221684FEA924C4B6823F00E
:103260003F0343EA92424A600A6A48F2A063C0F20E
:1032700001039D4222F03F0313D80CF101020138F3
:103280006D001A43B0FBF5F00A62CA6901304CF6D2
:10329000FF736FF31F3022EA030C042898BF042049
:1032A0003FE04FF496720CFB02FC44F6D352C1F29D
:1032B0006202ACFB022C012202EB9C121A430A624E
:1032C000CA69A3684CF6FF7C22EA0C0CA0F1010E3F
:1032D0009BB119206843BEFBF0F00422013062F379
:1032E0001F30000512D09BB119206843BEFBF0F0DF
:1032F0000422013062F31F3011E005EB4500BEFBF4
:10330000F0F001306FF31F300005ECD1012008E030
:1033100005EB4500BEFBF0F001306FF31F3040F4C9
:10332000004040EA0C00C8610868D4E9072320F097
:10333000C000104318430860886848F2FF3204F167
:103340000C0C90439CE82C10184310438860C8680C
:1033500020F0FF00284340EA0C00C860086840F0F5
:103360000100086000202021206484F83D102063C3
:1033700084F83E00B0BD00007047000070470000B8
:10338000704700007047000070470000B0B586B07D
:1033900000240594CDE9034445F600010068C4F219
:1033A000000188420294019401D006B0B0BD43F6FA
:1033B00030050094C4F20205286840F0020028603D
:1033C000286800F00200009000984FF440600190DF
:1033D0001220CDE90204032004900420059001F599
:1033E000D63001A9FFF722F900942869012140F4A1
:1033F000800028612869002200F480000090009875
:10340000212000F083F8212000F070F806B0B0BD54
:10341000704700007047000040F2000040F2507119
:10342000C2F20000C2F2000100780A68104408608D
:103430007047000080B543F60040C4F20200016806
:1034400041F400710160016841F48061016001682C
:1034500041F480710160032000F084F80F2000F037
:1034600005F800F027F8002080BD000070B540F29C
:103470000006C2F2000640F208013278C2F20001F2
:103480004FF47A730968B3FBF2F20446B1FBF2F130
:10349000084601F033F80F2C4FF0010508D838B971
:1034A0004FF0FF3021460022002500F02FF8746015
:1034B000284670BD82B0002043F640010190C4F25E
:1034C00002014A6842F480424A604A6802F480423B
:1034D0000192019A0090086840F0805008600868E6
:1034E00000F080500090009802B07047002848BF5C
:1034F000704700F01F01012202FA01F14EF20012A2
:103500004009CEF2000242F82010704710B54EF686
:103510000C5CCEF2000CDCF80030C3F3022E8EF00F
:103520000704042C28BF0424BEF103034FF0FF3E20
:103530000EFA04F438BF0023A14399400EFA03F3B6
:103540009A4300F00F03043B1143634409010C3319
:1035500000F16042B0F1FF3FC8BF02F5644319704B
:1035600010BD00004EF60C51CEF200010A684FF675
:10357000FF031A4060F30A2242F0806040F0FD70C1
:10358000086070472DE9F041002800F08B8043F679
:103590000808C4F202080446D8F8F8030D4600F003
:1035A0000700884207D288F8F853D8F8F80300F0EB
:1035B0000700A84276D12068810717D5410705D5B5
:1035C000D8F8001041F4E051C8F80010010705D503
:1035D000D8F8001041F46041C8F80010D8F8001085
:1035E000A26821F0F0011143C8F80010C0073FD1D4
:1035F000D8F8F80300F00700A84207D988F8F85374
:10360000D8F8F80300F00700A8424BD12068410722
:1036100007D5D8F80010E26821F4E0511143C8F84A
:103620000010000708D5D8F80000216920F4604098
:1036300040EAC100C8F8000000F07CF8D8F800109B
:1036400049F65F32C1F30311C0F60002515C40F24B
:10365000080220FA01F140F20400C2F20000006802
:10366000C2F200021160FFF701FF0020BDE8F08107
:103670006068811E022907D258F8081C89015CBFC6
:103680000120BDE8F08110E0012807D158F8081C9E
:1036900089035CBF0120BDE8F08106E058F8081CF2
:1036A000890702D40120BDE8F081D8F8001021F08C
:1036B00003010843C8F80000FFF7AAF8064641F2E4
:1036C000883700BFD8F80000616800F00C00B0EB4C
:1036D000810F8DD0FFF79CF8801BB842F2D90320F0
:1036E000BDE8F08140F2080043F60801C2F2000094
:1036F000C4F202010068096849F66F32C1F3822101
:10370000C0F60002515CC8407047000040F208005B
:1037100043F60801C2F20000C4F202010068096821
:1037200049F66F32C1F34231C0F60002515CC84025
:103730007047000010B543F60404C4F20204606848
:1037400000F00C0142F200400829C0F2F40007D05A
:10375000042918BF10BD41F20020C0F27A0010BD4C
:10376000216801F03F02216823684902C3F38811F0
:1037700005D4A1FB00010023FCF7CCFD06E041F2DB
:103780000020C0F27A004843B0FBF2F02168022228
:10379000C1F3014102EB4101B0FBF1F010BD0000AB
:1037A0002DE9F04182B0002868D00446007843F645
:1037B0000006C007C4F202060BD0B06800F00C008F
:1037C000042840F0A0803068800302D5606800289B
:1037D00054D0207880071AD5B06810F00C0F09D0AB
:1037E000B06800F00C00082840F0B4807068400217
:1037F00000F1B0803068800702D5E06801283DD133
:103800003068216920F0F80040EAC100306020787B
:10381000000737D4207840074BD4A56955B3B0686A
:1038200000F00C00082840F0DA80012D26D07068E6
:10383000E16900F480028A4220D1216A00F03F024F
:103840008A421BD147F6C071626A0140B1EB821F08
:1038500014D1A16A4FF6FF73C903994300F44032B3
:10386000A1F580318A4209D1E16A00F07060B0EBC5
:10387000016F03D1002002B0BDE8F081012002B049
:10388000BDE8F0816069002840F20000C4F24720E2
:1038900000F091800121C0F8801EFEF7B9FF0546B7
:1038A000706F8007B6D4FEF7B3FF401B0228F7D92C
:1038B00091E0306C4FF00008C0000CD4CDF80480CB
:1038C000306C4FF0010840F080503064306C00F0F4
:1038D00080500190019847F20007C4F20007386851
:1038E000C0054DD4386840F480703860FEF790FF12
:1038F000054600BF3868C00542D4FEF789FF401B6B
:103900000228F7D967E0B06800F00C00082803D15E
:10391000706840023FF557AF6568B5F5803F07D046
:103920003068B5F5A02F40F0B38040F480203060BF
:10393000306840F480303060FEF76AFF054600BF13
:10394000306880033FF545AFFEF762FF401B6428F7
:10395000F6D940E0E068002864D00020C4F2472097
:1039600001210160FEF754FF054600BF3068800763
:103970003FF546AFFEF74CFF401B0228F6D92AE080
:10398000A568012D05D0306F052D5FD140F00400F2
:103990003067306F40F001003067FEF739FF0546B1
:1039A00041F28837306F800769D4FEF731FF401B42
:1039B000B842F7D90FE00021C0F8801EFEF728FFBB
:1039C000054600BF706F80077FF524AFFEF720FF2C
:1039D000401B0228F6D9032002B0BDE8F081002781
:1039E000C4F2472700203866FEF712FF022D054675
:1039F0000CD100BF3068800164D5FEF709FF401B81
:103A000002284FF00300F5D935E700BF3068800188
:103A10007FF530AFFEF7FCFE401B02284FF003009D
:103A2000F4D928E70020C4F2472000210160FEF706
:103A3000EFFE0546306880077FF5E9AEFEF7E8FE49
:103A4000401B02284FF00300F4D914E720F00100D6
:103A50003067306F20F004003067FEF7D9FE002D8C
:103A600005469DD141F28837306F800707D5FEF7B4
:103A7000CFFE401BB8424FF00300F5D9FBE6B8F18A
:103A8000000F3FF4CAAE306C20F080503064C4E6C2
:103A900020F480303060306820F480203060FEF701
:103AA000B7FE002D05467FF44BAF07E0FEF7B0FEF2
:103AB000401B64284FF003003FF6DDAE3068800302
:103AC000F4D486E604F11C052FCD084340EA8210A9
:103AD000D9034FF6FF729143A1F5803140EA0560AA
:103AE0000843706001203866FEF792FE044600BF6E
:103AF000306880013FF5BEAEFEF78AFE001B02284B
:103B00004FF00300F4D9B6E670470000B0B582B0BC
:103B100004460068416882684B0609D502F04103FB
:103B2000012B05D1216C204602B0BDE8B04008470A
:103B30000B0608D512F0020305D0616C204602B0D6
:103B4000BDE8B04008478B0610D512F4B0730DD015
:103B500012F0400317D094F85130032B08D1002104
:103B60000191C168019180680190019802B0B0BDD7
:103B7000636D43F00403636500230193C3680193FD
:103B800083680193019B12F0200302F4807203D139
:103B90008AB9626DDAB9E9E7636D43F001036365E1
:103BA0000023019383680193036823F040030360BB
:103BB000019B002AEDD0626D42F00802626500228E
:103BC000019282680192019A626D002ACED0426809
:103BD000890722F0E00242604FF0010284F8512090
:103BE0001FD0416845F60D5521F003014160E06C9E
:103BF000C0F6000538B10565FEF7EEFC18B1606D42
:103C000040F040006065A06C0028AFD00565FEF76D
:103C1000E3FC0028AAD0606D40F04000606502B06F
:103C2000B0BD204602B0BDE8B040FFF76DBF000058
:103C300070B550B1D0F824C00446BCF1000F06D0D6
:103C40000021216104F1140107E0012070BD6168C9
:103C5000B1F5827F03D004F11C0100220A60002527
:103C6000A56294F851104FF0000E41B9204684F837
:103C7000505000F03FF8D4E909C101F4005E02227F
:103C800084F85120D4E90023D4E90201166803F432
:103C9000827326F04006166000F40440184423693D
:103CA00001F40061084403F002016369084403F071
:103CB0000101A369E669084403F40071084406F0B1
:103CC0003801266A084406F08001084340EA0E00E5
:103CD0001060042000EA13400CF01001084450600A
:103CE000D06920F40060D0610120656584F851003E
:103CF000284670BD80B586B000220592CDE903222A
:103D000043F200010068C4F201018842029201926C
:103D100001D006B080BD43F630000092C4F202002C
:103D2000436943F480534361436903F48053009330
:103D3000009B0092036843F001030360006800F0F9
:103D4000010000900098E02001900220CDE90202DD
:103D5000032004900520059001F5504001A9FEF7CD
:103D600065FC232001210022FFF7D0FB2320FFF771
:103D7000BDFB06B080BD00002DE9F04182B00446D5
:103D800090F85100012818D10E4600294FF001008B
:103D900000F0BC801746002A00F0B88060681D461D
:103DA000B0F5827F03D1A068002800F0B280FEF752
:103DB0002FFD94F85010012903D1022002B0BDE874
:103DC000F0818046012084F850000420002184F80E
:103DD00051006165A663A787E7872163A186E18615
:103DE000A2682068B2F5004F2164616438D0016890
:103DF000490640D5E268E18F002A44D0002972D0FC
:103E0000691C1AD08168C90706D1FEF701FDA0EB35
:103E10000800A84208D389E0C068A16B21F8020B12
:103E2000A163E08F0138E087E08F00285BD0206835
:103E30008168C907E9D0EFE720688168C90703D125
:103E4000FEF7E6FC08E000BFC068A16B21F8020B9A
:103E5000A163E08F0138E087E08F0028ECD142E0D9
:103E6000016821F040010160016821F48041016096
:103E700001684906BED4016841F040010160E26872
:103E8000E18F002ABAD171B3691C1AD08168C907C1
:103E900006D1FEF7BDFCA0EB0800A84209D345E01F
:103EA000007BA16B0870A06B0130A063E08F01382C
:103EB000E087E08FB8B120688168C907E9D0EFE7F3
:103EC00020688168C90702D1FEF7A2FC08E0007BE8
:103ED000A16B0870A06B0130A063E08F0138E08710
:103EE000E08F0028ECD120462946424601F014FF1D
:103EF00000281CBF20206065012084F851000020AC
:103F000084F85000606D002818BF012002B0BDE8A1
:103F1000F081042084F851002046314632463B4669
:103F2000009500F047F902B0BDE8F081012084F867
:103F30005100002084F85000032002B0BDE8F08159
:103F40002DE9F04184B01D4616460F460446FEF7A3
:103F50005FFC94F8511001290DD18046002F4FF0DD
:103F6000010018BF002E02D104B0BDE8F08194F822
:103F70005000012803D1022004B0BDE8F0810120E7
:103F800084F850000320002184F851006165276304
:103F9000A686E686A163A187E187A0682164B0F5C3
:103FA000004F2068616407D1016821F04001016081
:103FB000016841F4804101600168490603D4016849
:103FC00041F0400101606168731EE268B1FA81F15D
:103FD000B3FA83F349095B09B2F5006F41EA0301C3
:103FE00039D131B137F8021BC1602763E18E013945
:103FF000E186E18E00296FD0691C1AD0816889079B
:1040000006D4FEF705FCA0EB0800A84208D345E063
:10401000216B31F8022BC2602163E08E0138E0860B
:10402000E08E002858D0206881688907E9D5EFE73D
:1040300020688168890702D4FEF7EAFB07E0216B5C
:1040400031F8022BC2602163E08E0138E086E08EF9
:104050000028EDD140E039B139780173206B01308F
:104060002063E08E0138E086E08EA8B3681C0BD197
:1040700022E0216B09780173206B01302063E08E10
:104080000138E086E08E38B3206881688907F0D473
:10409000FEF7BEFBA0EB0800A842F3D3012084F892
:1040A0005100002084F85000032004B0BDE8F081E6
:1040B000FEF7AEFBE08E78B1206881688907F7D5FE
:1040C000216B09780173206B01302063E08E013889
:1040D000E086E08E0028EFD12046022101222B4607
:1040E000CDF8008001F05AFEE0B1606D40F0200094
:1040F000606520206065A06838B9002002902068C3
:10410000C1680291806802900298012084F85100F1
:10411000002084F85000606D002818BF012004B012
:10412000BDE8F08140F20800C2F20000006849F6E4
:104130008171C1F25E61A0FB0101480D4FF47A71FB
:10414000484303906068B0F5827F0AD12046802101
:1041500000222B46CDF8008001F020FE0028C4D1BB
:10416000C9E703980028C6D0039801380390206857
:1041700080680006BFD503980028BCD0039801389A
:104180000390206880680006B5D503980028B2D057
:10419000039801380390206880680006ABD5039827
:1041A0000028A8D003980138039020688068000692
:1041B000D7D4A0E72DE9F04383B01E4615460F463D
:1041C0000446FEF725FB94F851108146012908D1D9
:1041D000002F4FF0010018BF002D0ED103B0BDE835
:1041E000F0836068B0F5827F0DD104294FF00200A2
:1041F000F4D1A1680029EBD0F0E7002EEED094F8BE
:104200005000012803D1022003B0BDE8F083012053
:1042100084F8500094F85100002104281CBF0520A8
:1042200084F851006165A563E687A6872763E68663
:104230002068A686216461640168490603D4016888
:1042400041F0400101606168731EE268B1FA81F1DA
:10425000B3FA83F3DDF8288049095B09B2F5006FF2
:1042600041EA030164D131B137F8021BC160276311
:10427000E08E0138E086012518F1010031D101E01E
:10428000FEF7C6FAE08E18B9E08F002800F0B8807B
:104290002068816889070CD5E18E012D09D141B1D3
:1042A000216B002531F8022BC2602163E18E0139B8
:1042B000E1868168C907E3D0E18F0029E0D0C068BA
:1042C000A16B012521F8020BA163E08F0138E08783
:1042D000D6E700BFFEF79CFAA0EB0900404580F04E
:1042E000A580E08E18B9E08F002800F08980206852
:1042F000816889070CD5E18E012D09D141B1216B6F
:10430000002531F8022BC2602163E18E0139E1867C
:104310008168C907DED0E18F0029DBD0C068A16BBE
:10432000012521F8020BA163E08F0138E087D1E776
:1043300039B139780173206B01302063E08E013888
:10434000E086012518F1010032D101E0FEF760FAA4
:10435000E08E10B9E08F002852D02068816889076C
:104360000ED5E18E012D0BD151B1216B00250978BD
:104370000173216B206801312163E18E0139E186EF
:104380008168C907E2D0E18F0029DFD0C068A16B46
:1043900001250870A06B0130A063E08F0138E08731
:1043A000D4E700BFFEF734FAA0EB090040453DD248
:1043B000E08E08B9E08F18B32068816889070ED5B0
:1043C000E18E012D0BD151B1216B002509780173CC
:1043D000216B206801312163E18E0139E18681681A
:1043E000C907DFD0E18F0029DCD0C068A16B0125AF
:1043F0000870A06B0130A063E08F0138E087D1E73F
:104400002046022101224346CDF8009001F0C6FC6F
:10441000B0B1606D40F02000606520206065002034
:1044200084F85000012003B0BDE8F083012084F837
:104430005100002084F85000032003B0BDE8F08351
:1044400040F20800C2F20000006849F68171C1F232
:104450005E61A0FB0101480D4FF47A714843029060
:104460006068B0F5827F20D120468021002243463B
:10447000CDF8009001F092FC0028CAD1A06838B9AC
:10448000002001902068C168019180680190019826
:10449000012084F85100002084F85000606D00284D
:1044A00018BF012003B0BDE8F08302980028E5D0D2
:1044B000029801380290206880680006DED50298D4
:1044C0000028DBD00298013802902068806800063E
:1044D000D4D502980028D1D00298013802902068E3
:1044E00080680006CAD502980028C7D00298013813
:1044F0000290206880680006D7D4BFE7411E0020E4
:10450000B0EB116F1CBF012070474EF21002CEF2CB
:10451000000251604EF62351CEF20001F0230B70E1
:1045200007219060116070477047000070470000DD
:1045300010B590F83C20012A4FF0020252D001231E
:1045400080F83C3080F83D200268D2F804E0D2F8D0
:1045500008C00C682EF07003234341F2FF74C4F2CC
:104560000004A24253600DDC40F2FF73C4F200036A
:104570009A4215DCB2F1804F29D040F20043C4F2D8
:10458000000322E040F2FF33C4F201039A4212DC3E
:1045900041F60003C4F200039A4218D0002312E04F
:1045A00040F60003C4F200039A4210D040F60043E4
:1045B000C4F2000309E044F20003C4F201039A428A
:1045C00005D040F20043C4F201039A4204D1496885
:1045D0002CF08003194391600121002280F83D10E6
:1045E00080F83C20104610BD002804BF0120704711
:1045F00010B5044690F83D0028B9002084F83C002E
:10460000204600F01FF8022084F83D002068211D9C
:1046100002F07EF8012084F8460084F83E0084F819
:104620003F0084F8400084F8410084F8420084F898
:10463000430084F8440084F8450084F83D000020DD
:1046400010BD000080B584B0006840F60001C4F2DF
:104650000001884222D040F20041C4F200018842A9
:1046600036D0B0F1804F42D10020039043F6400095
:10467000C4F202000168002241F0010101600068FB
:10468000012100F00100039003981C20FEF73EFF7B
:104690001C2004B0BDE88040FEF728BF0020019038
:1046A00043F64000C4F202000168002241F0040118
:1046B00001600068002100F00400019001981E20B4
:1046C000FEF724FF1E2004B0BDE88040FEF70EBFB9
:1046D0000020029043F64000C4F20200016841F05D
:1046E00002010160006800F002000290029804B02C
:1046F00080BD000090F83D1001291CBF01207047CB
:10470000022180F83D10006841F2FF71C4F20001FF
:1047100088420DDC40F2FF71C4F20001884215DCD2
:10472000B0F1804F29D040F20041C4F2000122E0F4
:1047300040F2FF31C4F20101884212DC41F600016F
:10474000C4F20001884218D0002112E040F60001B6
:10475000C4F20001884210D040F60041C4F20001CA
:1047600009E044F20001C4F20101884205D040F2A0
:104770000041C4F20101884206D1816801F00701BD
:10478000062904BF00207047016841F00101016063
:104790000020704790F83D1001291CBF0120704790
:1047A000022180F83D10006841F2FF72C168C4F236
:1047B0000002904241F00101C1600DDC40F2FF7146
:1047C000C4F20001884215DCB0F1804F29D040F2DC
:1047D0000041C4F2000122E040F2FF31C4F20101C5
:1047E000884212DC41F60001C4F20001884218D070
:1047F000002112E040F60001C4F20001884210D00E
:1048000040F60041C4F2000109E044F20001C4F2A4
:104810000101884205D040F20041C4F20101884202
:1048200006D1816801F00701062904BF0020704706
:10483000016841F0010101600020704780B590F8E7
:104840003C20012A4FF0020200F0C280012380F8D0
:104850003C3080F83D20D0F800C04FF67772DCF88D
:10486000083023EA0202CCF808200B684F2B28DC22
:104870001F2B43DD202B44D0302B42D0402B40F067
:10488000A980D1F804E0C968DCF82030DCF82020E9
:1048900022F00102CCF82020DCF8182022F0F002EF
:1048A00042EA011123F00A0242EA0E02CCF8181083
:1048B000CCF82020DCF8081041F0470121F030014D
:1048C0007DE06F2B25DDB3F5005F46D0B3F5805F4B
:1048D00077D0702B7ED1D1E901E3C968DCF80820DC
:1048E00043EA0E0322F47F4243EA01211143CCF84C
:1048F0000810DCF8081041F0770160E00BB1102BD4
:1049000068D1DCF8081021F07001194341F007016B
:1049100055E0502B34D0602B5CD1D1F804E0C9684D
:10492000DCF82030DCF8202022F01002CCF8202027
:10493000DCF8182022F4704242EA013123F0A00290
:1049400042EA0E12CCF81810CCF82020DCF808103F
:1049500041F0670121F0100131E0D1E901E3C968BC
:10496000DCF8082043EA0E0322F47F4243EA0121E7
:104970001143CCF80810DCF8081041F480411EE027
:10498000D1F804E0C968DCF82030DCF8202022F0FF
:104990000102CCF82020DCF8182022F0F00242EAD4
:1049A000011123F00A0242EA0E02CCF81810CCF8EA
:1049B0002020DCF8081041F0570121F02001CCF84C
:1049C00008100022012180F83D10002180F83C10E1
:1049D000104680BD0122F5E770470000B0B50446DF
:1049E0000068C168026902EA0105A90720D46807C6
:1049F00038D4280752D4E8066BD4E80740F0878003
:104A0000280600F18E80680606D520686FF0400108
:104A10000161204600F054F9A80658BFB0BD2168D6
:104A20006FF0200220460A61BDE8B040FFF77EBD6E
:104A30006FF002010161012121778069800707D0B1
:104A40002046FFF7C9FF002020776807D1D509E08D
:104A5000204600F071F8204600F070F80020207722
:104A60006807C6D520686FF0040101610221217733
:104A7000806910F4407F07D02046FFF7ADFF00208B
:104A800020772807B7D509E0204600F055F82046E2
:104A900000F054F8002020772807ACD520686FF08C
:104AA0000801016104212177C069800707D02046F1
:104AB000FFF792FF00202077E8069ED509E0204608
:104AC00000F03AF8204600F039F800202077E80698
:104AD00093D520686FF01001016108212177C0692A
:104AE00010F4407F08D02046FFF776FF00202077A3
:104AF000E8073FF485AF0AE0204600F01DF82046A5
:104B000000F01CF800202077E8073FF479AF206818
:104B10006FF001010161204600F012F828067FF5D0
:104B200072AF20686FF0800101612046FFF7FCFC46
:104B300068067FF571AF68E77047000070470000B6
:104B400070B540F25451C2F2000104460068096891
:104B500088426CD140F20816C2F20006707901302A
:104B600070717079322803D1002070710120B0710A
:104B700040F60045C4F2020528464FF48041FDF797
:104B800033FE717808431ED10120707040F2D820A6
:104B9000C2F2000001F0B6FA40F2BC10C2F200000E
:104BA00001F0B0FA05F580601021FDF723FE2846DC
:104BB0000121FDF71FFEA5F500600421FDF71AFE97
:104BC000FDF726FEB060FDF723FEB168401AB0F590
:104BD0007A7F04D37078012804BF00207070A5F597
:104BE000806528464FF48041FDF7FEFDB0702846F1
:104BF0000821FDF7F9FDF07018B1B07808B1002078
:104C00000CE040F2D820C2F2000001F0BBFB40F201
:104C1000BC10C2F2000001F0B5FB012040F2A4413B
:104C20003071C2F200010868421C20680A6040F23C
:104C3000E451C2F20001096888423AD140F60040CE
:104C4000C4F202004FF40051FDF7CEFD40F208110E
:104C5000C2F20001087058B940F2D820C2F2000038
:104C600001F090FB40F2BC10C2F2000001F08AFBA0
:104C700040F2BC10C2F2000090F82210022909D1C3
:104C8000D0E91F1201319142C16703DB0021C167E6
:104C900001F03CF940F2D820C2F2000090F8221056
:104CA000022918BF70BDD0E91F1201319142C167BE
:104CB00000DA70BD0021C167BDE8704001F026B97F
:104CC000704700007047000070470000F0B581B0E9
:104CD000044600680168C268456901F02F03202B73
:104CE00002F0200306D12BB1204601B0BDE8F04010
:104CF00001F0B4BD5FEA017C07D005F0010E12F4AB
:104D0000907F8EF001052FD175B3236B1140CA0639
:104D100018D5012B16D1002100910168009141683E
:104D2000009100994169490600F17E81A18DE28DD3
:104D3000E38D002B1CBF891A5FEA014240F0FD8021
:104D400001B0F0BD0A0600F129824906F8D5C16814
:104D500021F04001C1602021204684F8411001B0BB
:104D6000BDE8F04000F0CEBBCE0718BF12F480764D
:104D700003D0666C46F00106666401F00407012664
:104D800086EA97072F4303D1676C47F002076764F1
:104D900001F0020786EA5706354303D1656C45F0FA
:104DA0000405656453EA0E0318BF0123BCF1000F2C
:104DB00004D51BB1636C43F008036364636C002B80
:104DC000BED01140890603D5204601F047FD20687A
:104DD0004169626C01F0400102F00802891800F09C
:104DE000FE8100BF50E8030F216820F4907041E875
:104DF0000302C2B3206850E8030F216820F49070CA
:104E000041E803027AB3206850E8030F216820F4D8
:104E1000907041E8030232B3206850E8030F216824
:104E200020F4907041E80302EAB12068DAE700BF9D
:104E3000206850E8050F216820F0010041E80502D4
:104E4000DAB1206850E8050F216820F0010041E840
:104E5000050292B1206850E8050F216820F001009A
:104E600041E805024AB1206850E8050F216820F0AA
:104E7000010041E80502002ADAD1206B012824D183
:104E8000206850E8030F216820F0100041E8030279
:104E9000DAB1206850E8030F216820F0100041E8E3
:104EA000030292B1206850E8030F216820F010003F
:104EB00041E803024AB1206850E8030F216820F05E
:104EC000100041E80302002ADAD1202084F84200D1
:104ED0000020206320684169490640F1998150E82B
:104EE000050F216820F0400041E80502002A00F08B
:104EF0007D81206850E8050F216820F0400041E8DE
:104F00000502002A00F07281206850E8050F216830
:104F100020F0400041E80502002A00F06781206887
:104F200050E8050F216820F0400041E80502002A02
:104F300000F05C812068D2E7206850E8030F226807
:104F400020F4907042E80303BBB3206850E8030FDD
:104F5000226820F4907042E8030373B3206850E89D
:104F6000030F226820F4907042E803032BB32068FB
:104F700050E8030F226820F4907042E80303002BEE
:104F8000DAD11AE0206850E8050F226820F001000D
:104F900042E80503DBB1206850E8050F226820F0E5
:104FA000010042E8050393B1206850E8050F22682C
:104FB00020F0010042E805034BB1206850E8050FDE
:104FC000226820F0010042E80503002BDAD12020FE
:104FD00084F8420000202063206850E8030F226814
:104FE00020F0100042E80303DBB1206850E8030F13
:104FF000226820F0100042E8030393B1206850E8D3
:10500000030F226820F0100042E803034BB1206830
:1050100050E8030F226820F0100042E80303002B41
:10502000DAD1022289B2D3E0E36B19684D68A28D10
:10503000A9B2002900F0C380914280F0C080E585CC
:10504000D969B1F5807F00F09E8050E8030F216898
:1050500020F4807041E80302E2B1206850E8030FB9
:10506000216820F4807041E803029AB1206850E87A
:10507000030F216820F4807041E8030252B12068D8
:1050800050E8030F216820F4807041E803020AB160
:105090002068DAE7206850E8050F216820F0010059
:1050A00041E80502BAB3206850E8050F216820F0F6
:1050B000010041E8050272B3206850E8050F21683D
:1050C00020F0010041E805022AB3206850E8050FEE
:1050D000216820F0010041E80502002ADAD11AE037
:1050E000206850E8050F216820F0400041E80502E3
:1050F000DAB1206850E8050F216820F0400041E84F
:10510000050292B1206850E8050F216820F04000A8
:1051100041E805024AB1206850E8050F216820F0F7
:10512000400041E80502002ADAD1202084F842003C
:1051300000202063206850E8030F216820F0100051
:1051400041E80302DAB1206850E8030F216820F03B
:10515000100041E8030292B1206850E8030F216873
:1051600020F0100041E803024AB1206850E8030F24
:10517000216820F0100041E80302002ADAD1E06B38
:10518000FDF7E2F9A28D02206063E08D101A81B272
:10519000204601B0BDE8F040FFF794BD94F84110FF
:1051A00021297FF4CDADA168B1F5805F01D12169DE
:1051B000A1B3216A4A1C22620978416035E08A4223
:1051C0007FF4BEADD869B0F5807F7FF4B9AD02221F
:1051D0002046626301B0BDE8F040FFF773BD204692
:1051E000FFF772FD0020606401B0F0BDE06B78B1A4
:1051F00046F65101C0F600010165FDF7EDF9002802
:105200003FF49EADE06B016D01B0BDE8F040084792
:10521000204601B0BDE8F040FFF756BD216A31F8E5
:10522000022B6FF35F2242602162E18C01390A0494
:10523000E1847FF485ADC16821F08001C160C1685F
:1052400041F04001C16001B0F0BD0000002804BF82
:105250000120704710B5044690F8410028B900209D
:1052600084F84000204600F021F8242084F8410012
:105270002068C16821F40051C160204601F06CFB38
:105280002068016921F490410161416921F02A01FE
:105290004161C16841F40051C16000202021606477
:1052A00084F8411084F84210606310BD10B586B0D8
:1052B0000021CDE90411CDE90211006844F6000295
:1052C000C4F200029042019128D044F20041C4F29D
:1052D0000001884255D1002043F630010090C4F20D
:1052E00002010A69262442F400320A610A6902F4C2
:1052F00000320092009A0090086840F008000860B0
:10530000086800F00800009000986020019040F6C6
:105310000000C4F2020000F580601FE043F6300098
:105320000091C4F202000269272442F48022026143
:10533000026902F480220092009A0091016841F013
:1053400004010160006800F00400009000984FF430
:105350004060019040F60000C4F202000221029178
:1053600000210391032104910721059101A9FDF773
:105370005DF9204601210022FEF7C8F82046FEF71D
:10538000B5F806B010BD0000704700002DE9F041EF
:10539000044690F8410020281CBF0220BDE8F0819F
:1053A0000F4600294FF0010000F0A2801646002AA7
:1053B00008BFBDE8F081002521209846656484F887
:1053C0004100FDF725FAA684E684A1680646B1F5FA
:1053D000805F05D12069002814BF38463D46074646
:1053E000E28C206801680AB318F1010246D0B8F1D6
:1053F000000F70D0090608D4FDF70AFA801B40455B
:105400007AD82068C1680168F4E717B117F8011B62
:1054100004E035F8021B00276FF35F214160E18C47
:105420000139E184E28C0168002AE3D1490612D4F3
:10543000B8F1000F56D018F1010138D101684906C2
:105440005CBF01685FEA416105D40168490602D486
:1054500001684906F2D5202084F841000020BDE80B
:10546000F08135F8021B00276FF35F214160E18C6A
:105470000139E184E28C0168002AD7D009065FBFB8
:1054800001685FEA016101685FEA016104D40168B3
:10549000090601D40168F1E7002FE2D017F8011BDB
:1054A000E4E700BF2068C16800684006D3D4FDF778
:1054B000AFF9801B4045F5D916E000BF35F8021B57
:1054C00000276FF35F214160E18C0139E184E28CB8
:1054D0000168002AAAD009060CD5002FEED017F8D3
:1054E000011BF0E7FDF794F9202084F84100032028
:1054F000BDE8F081FDF78CF9202084F841000320FD
:10550000BDE8F08170470000FEE7000040F2A840CF
:10551000C2F20000FDF786B910B582B000210191FA
:10552000806B40F20801C2F2000190F83DC00968AA
:105530004BF28952C908C1F2F842A1FB0212110ACA
:10554000232251430191019911B30199013901912C
:105550000168096889051FD50199C9B10199013907
:10556000019101680968890516D5019981B10199F0
:10557000013901910168096889050DD5019939B191
:10558000019901390191016809688905DBD403E0BB
:10559000016C41F020010164446B4FF0000E002CBF
:1055A0001CBF0021E163816B00291CBF0022CA637C
:1055B0000268002C136823F480631360A0F82AE0CB
:1055C00018BFC4F850E000291CBF00230B65116808
:1055D00021F00101116090F83D1060290AD12021CD
:1055E00080F83D10002180F83E100164FDF716F9A7
:1055F00002B010BD0CF02801282910D1116841F02B
:1056000001011160116841F48061116000210163A2
:10561000282180F83D10FDF7DBFD02B010BD2021F0
:1056200080F83D10002180F83E10FDF7D1FD02B05A
:1056300010BD000010B5044690F83D1090F83E00F3
:10564000402801D010280AD1222908D120680268F8
:1056500022F4006202604268602938D140E001F023
:10566000280028282FD100202063282084F83D001E
:1056700020684168090538D5416821F4006141601E
:10568000606B90F8351001294DD1A06B45F219518E
:10569000C0F600010165FCF79FFF002856D0206886
:1056A0004169490606D50069616A0870616A206827
:1056B00001316162016821F001010160202084F85C
:1056C0003D00A06B40E020684268602908D012F4D9
:1056D000006105D1202184F83D10002184F83E109E
:1056E0000021216341680905C6D494F83D10602962
:1056F0004ED1202184F83D100021216441694906E2
:1057000006D50069616A0870616A206801316162CA
:10571000016821F0010101602046FDF77FF8206C4F
:10572000000716D11AE045F21951C0F600010165D3
:10573000FCF752FF50B12168606B0A6822F0010249
:105740000A60202184F83D10016D8847206C000715
:1057500004D02068416821F4E061416094F83D1074
:10576000206C282918BF10BD10F004000FD00020B5
:10577000CFF6FF70E06200212020216384F83D0015
:10578000204684F83E10BDE81040FDF7F5BD10BD81
:105790004169490605D50069616A0870606A01308F
:1057A00060622046FDF714FD206C0007D1D1D5E7DB
:1057B00090F83D10026D52B1026D012A12D10168BC
:1057C000826CD2B20A61016D013101657047C26C11
:1057D000816C012A14D10268C9B21161016D0231D4
:1057E00001657047026D022A12D1222917D1016882
:1057F0000A6842F480720A60016D013101657047E8
:10580000C1F3072102681161016D01310165704723
:1058100000684169090644BF002101617047428D5B
:1058200021290AD14AB1416A026811F8013B13618A
:105830004162418D0139418570472129428D08BF60
:10584000002AEBD101684A6822F4E0624A600A68E3
:1058500042F400720A6000212022016380F83D209A
:1058600080F83E10FDF790BDFEE70000B0B52DEDCD
:10587000068BB5EE401AB0EE419AB0EE608AB0EEFB
:1058800040AAF1EE10FA044614DA94F894000021CC
:1058900084F8A01018B301282ED194F8A00001219B
:1058A000B0FA80F042090020C4F20200FCF7AAFF1F
:1058B000002531E094F89400012184F8A010E8B1AB
:1058C000012828D194F8A0000121B0FA80F0420903
:1058D0000020C4F202000125FCF794FF1CE0002028
:1058E000C4F2020000F5805020210122FCF78AFF5B
:1058F00094F894000128D0D000250DE00020C4F2D7
:10590000020000F5805020210022FCF77BFF94F874
:1059100094000128D6D0012594ED070A29EE091A32
:1059200030EE000A20EE0A0A81EE000A84ED0C9A9D
:1059300084F8005184ED0DAA84ED0E8ABDEEC00AF4
:1059400084ED1D0A84ED190ABDEC068BB0BD000084
:1059500070B52DED028B90ED070A90ED0D1A30EE2B
:10596000000A80EE010A044610EE100A03F0E6FF7A
:1059700041EC100B03F046FA51EC100B9FED1E0B9F
:1059800053EC102B03F026FD9FED1D0B53EC102B59
:1059900003F020FD03F0D8FC0021C4E92A002166B1
:1059A000C4E92000C4F8880003F0FDFC0546606EE1
:1059B0000E46013003F0F7FC41EC100B03F022FA25
:1059C000606EB0EE408AF0EE608A03F0ECFC41ECD1
:1059D000100B03F017FA51EC180B53EC102B03F0DB
:1059E000C3FE2A46334603F0F5FC03F0ADFCC4F8D1
:1059F000B000BDEC028B70BD0000000000005940FB
:105A00000000000000408F4010B540F60044C4F292
:105A1000020404F5806010210022FCF7F3FE20460A
:105A200001210022BDE81040FCF7ECBE10B540F6A5
:105A30000044C4F2020404F5806010210122FCF746
:105A4000E1FE204601210122BDE81040FCF7DABE4C
:105A5000B0B5B0EEC01AB6EE002AB4EE421AF1EEBE
:105A600010FA04460DDA204600F08CFCE06E10F1CE
:105A7000040FB8BFB0BD002084F82000012060846E
:105A8000B0BDB2EE041AB4EE410AF1EE10FA0FDA2C
:105A9000BAEE041AB4EE410AF1EE10FA2FDDB0EEC0
:105AA000401A84ED0C0A94F8220002282FD107E056
:105AB0000020C4F22010206394F82200022826D18E
:105AC000B5EE401A94F80001F1EE10FA4FF000051F
:105AD000A8BF0125A8424FF0000032D121EE010AF3
